:100000000C942A000C9434000C9434000C943400AA
:100010000C9434000C9434000C9434000C94340090
:100020000C9434000C9434000C9434000C94340080
:100030000C9434000C9434000C9434000C94340070
:100040000C9434000C9434000C9434000C94340060
:100050000C94340011241FBECFE5D4E0DEBFCDBF29
:100060000E9436000C9441000C94000080EF81BB8C
:1000700012BA9FE080B3807F11F092BBFBCF12BA1F
:06008000F9CFF894FFCF58
:00000001FF
