:100000000C942A000C9434000C9434000C943400AA
:100010000C9434000C9434000C9434000C94340090
:100020000C9434000C9434000C9434000C94340080
:100030000C9434000C9434000C9434000C94340070
:100040000C9434000C9434000C9434000C94340060
:100050000C94340011241FBECFE5D4E0DEBFCDBF29
:100060000E94A0000C9466010C940000AD9A88E9EF
:100070009AE30197F1F7AD980895982F92959F70A4
:10008000282F2F70672B49F495BBAD9A88E99AE326
:10009000FC013197F1F7AD980AC0906895BBAD9A15
:1000A00088E99AE3FC013197F1F7AD98206825BB08
:1000B000AD9A0197F1F7AD9808958FEF84BB15BA0B
:1000C00081E060E070E00E943D008CE060E070E064
:1000D0000E943D0088E260E070E00E943D000895CB
:1000E0006130710511F4815801C0815460E070E005
:1000F0000E943D000895EF92FF920F931F93CF93BC
:10010000DF9300E810E0C0E0D0E0E82EFF24C80153
:100110008E219F21892B11F081E301C080E361E0F2
:1001200070E00E943D00159507952196C830D105D5
:1001300071F7DF91CF911F910F91FF90EF9008958C
:100140000F931F93CF93DF9387E081BB87E090E00D
:1001500010E007E0CCE2D1E006C082BB01BB83998E
:100160001F5F110F01970097C1F712BA01BB839966
:100170001F5F0E945D00812F0E947B0088E893E151
:10018000FE013197F1F70197D9F787E090E010E091
:10019000E4CFEF92FF920F931F93CF93DF937C01F5
:1001A000DC010D900020E9F78D0101501040081B83
:1001B000190BC0E0D0E009C0F701EC0FFD1F8081F2
:1001C00061E070E00E943D002196C017D107A4F3C2
:1001D000DF91CF911F910F91FF90EF9008950F93B2
:1001E0001F93DF93CF93CDB7DEB7C456D0400FB681
:1001F000F894DEBF0FBECDBF8C01CB01BA010E94C7
:10020000700017FF08C08DE261E070E00E943D00C1
:10021000109501951F4FC801BE016F5F7F4F4AE0E7
:1002200050E00E9421010E94C900CC59DF4F0FB657
:10023000F894DEBF0FBECDBFCF91DF911F910F911C
:100240000895FB019F01E8944230C4F04532B4F4B4
:100250004A3029F497FB1EF4909581959F4F642FA7
:1002600077270E945201805D8A330CF0895D81936B
:10027000CB010097A1F716F45DE251931082C901FA
:100280000C944201DC01FC01672F71917723E1F7A7
:10029000329704C07C916D9370836291AE17BF0753
:1002A000C8F30895AA1BBB1B51E107C0AA1FBB1FBF
:1002B000A617B70710F0A61BB70B881F991F5A95F2
:1002C000A9F780959095BC01CD010895F894FFCFD2
:00000001FF
