:100000000C942A000C943F000C943F000C943F0089
:100010000C943F000C943F000C943F000C943F0064
:100020000C943F000C943F000C943F000C943F0054
:100030000C943F000C943F000C943F000C943F0044
:100040000C943F000C943F000C943F000C943F0034
:100050000C943F0011241FBECFE5D4E0DEBFCDBF1E
:1000600010E0A0E6B0E0EEE7F9E102C005900D92E5
:10007000A838B107D9F70E94B3000C94BD0C0C94BA
:100080000000AD9A80E395E70197F1F7AD980895E8
:10009000AF9A0895AF980895AE980895AE9A0895CE
:1000A000982F92959F70482F4F7061157105C9F474
:1000B00085B3807F982B95BBAF98AE98AD9A20E31F
:1000C00035E7C9010197F1F7AD9885B3807F482BDB
:1000D00045BBAF98AE98AD9AC9010197F1F7AD98BD
:1000E000089561307105C1F485B3807F982B95BB6D
:1000F000AF9AAE98AD9A20E335E7C9010197F1F7C1
:10010000AD9885B3807F482B45BBAF9AAE98AD9A2A
:10011000C9010197F1F7AD9808958FEF84BBAF98AF
:10012000AE9881E060E070E00E9450008FE060E0F7
:1001300070E00E94500088E260E070E00E94500091
:1001400008956130710531F4815860E070E00E94DB
:10015000500008956230710529F4815460E070E028
:100160000E94500008952F923F924F925F926F929B
:100170007F928F929F92AF92BF92CF92DF92EF9237
:10018000FF920F931F93DF93CF93CDB7DEB7A8975E
:100190000FB6F894DEBF0FBECDBFDE011196E0E6CC
:1001A000F0E088E201900D928150E1F71ABA86ECF6
:1001B00086B980EC87B9AA24BB244E010894811C1F
:1001C000911C77247A945CE1652E0CE211E04DE1FC
:1001D000542E3EE1432E20E2322E95E2292EF501E7
:1001E000EE0FFF1FEE0FFF1FE80DF91DC080D1803D
:1001F000E280F38077BAC701B60120E030E040E04A
:1002000051E40E94740C88230CF45CC1C701B60150
:1002100020E030E048E051E40E944C0C88230CF0D0
:1002200051C168BA80E197E2F8013197F1F701977F
:10023000D9F780E197E2F8013197F1F70197D9F703
:1002400080E197E2F8013197F1F70197D9F780E162
:1002500097E2F8013197F1F70197D9F780E197E23A
:10026000F8013197F1F70197D9F780E197E2F801AA
:100270003197F1F70197D9F780E197E2F8013197CB
:10028000F1F70197D9F780E197E2F8013197F1F79B
:100290000197D9F780E197E2F8013197F1F70197DB
:1002A000D9F780E197E2F8013197F1F70197D9F793
:1002B00080E197E2F8013197F1F70197D9F780E1F2
:1002C00097E2F8013197F1F70197D9F780E197E2CA
:1002D000F8013197F1F70197D9F780E197E2F8013A
:1002E0003197F1F70197D9F780E197E2F80131975B
:1002F000F1F70197D9F780E197E2F8013197F1F72B
:100300000197D9F780E197E2F8013197F1F701976A
:10031000D9F780E197E2F8013197F1F70197D9F722
:1003200080E197E2F8013197F1F70197D9F780E181
:1003300097E2F8013197F1F70197D9F780E197E259
:10034000F8013197F1F70197D9F780E197E2F801C9
:100350003197F1F70197D9F780E197E2F8013197EA
:10036000F1F70197D9F780E197E2F8013197F1F7BA
:100370000197D9F780E197E2F8013197F1F70197FA
:10038000D9F780E197E2F8013197F1F70197D9F7B2
:1003900080E197E2F8013197F1F70197D9F780E111
:1003A00097E2F8013197F1F70197D9F780E197E2E9
:1003B000F8013197F1F70197D9F780E197E2F80159
:1003C0003197F1F70197D9F780E197E2F80131977A
:1003D000F1F70197D9F780E197E2F8013197F1F74A
:1003E0000197D9F780E197E2F8013197F1F701978A
:1003F000D9F780E197E2F8013197F1F70197D9F742
:1004000080E197E2F8013197F1F70197D9F780E1A0
:1004100097E2F8013197F1F70197D9F780E197E278
:10042000F8013197F1F70197D9F780E197E2F801E8
:100430003197F1F70197D9F780E197E2F801319709
:10044000F1F70197D9F780E197E2F8013197F1F7D9
:100450000197D9F780E197E2F8013197F1F7019719
:10046000D9F780E197E2F8013197F1F70197D9F7D1
:1004700080E197E2F8013197F1F70197D9F780E130
:1004800097E2F8013197F1F70197D9F780E197E208
:10049000F8013197F1F70197D9F780E197E2F80178
:1004A0003197F1F70197D9F780E197E2F801319799
:1004B000F1F70197D9F780E197E2F8013197F1F769
:1004C0000197D9F7C701B60120E030E048E051E4D8
:1004D0000E94740C88230CF424C1C701B60120E0EB
:1004E00030E040E151E40E944C0C88230CF019C12B
:1004F00058BA80E197E2F8013197F1F70197D9F7FF
:1005000080E197E2F8013197F1F70197D9F780E19F
:1005100097E2F8013197F1F70197D9F780E197E277
:10052000F8013197F1F70197D9F780E197E2F801E7
:100530003197F1F70197D9F780E197E2F801319708
:10054000F1F70197D9F780E197E2F8013197F1F7D8
:100550000197D9F780E197E2F8013197F1F7019718
:10056000D9F780E197E2F8013197F1F70197D9F7D0
:1005700080E197E2F8013197F1F70197D9F780E12F
:1005800097E2F8013197F1F70197D9F780E197E207
:10059000F8013197F1F70197D9F780E197E2F80177
:1005A0003197F1F70197D9F780E197E2F801319798
:1005B000F1F70197D9F780E197E2F8013197F1F768
:1005C0000197D9F780E197E2F8013197F1F70197A8
:1005D000D9F780E197E2F8013197F1F70197D9F760
:1005E00080E197E2F8013197F1F70197D9F780E1BF
:1005F00097E2F8013197F1F70197D9F780E197E297
:10060000F8013197F1F70197D9F780E197E2F80106
:100610003197F1F70197D9F780E197E2F801319727
:10062000F1F70197D9F780E197E2F8013197F1F7F7
:100630000197D9F780E197E2F8013197F1F7019737
:10064000D9F780E197E2F8013197F1F70197D9F7EF
:1006500080E197E2F8013197F1F70197D9F780E14E
:1006600097E2F8013197F1F70197D9F780E197E226
:10067000F8013197F1F70197D9F780E197E2F80196
:100680003197F1F70197D9F780E197E2F8013197B7
:10069000F1F70197D9F780E197E2F8013197F1F787
:1006A0000197D9F780E197E2F8013197F1F70197C7
:1006B000D9F780E197E2F8013197F1F70197D9F77F
:1006C00080E197E2F8013197F1F70197D9F780E1DE
:1006D00097E2F8013197F1F70197D9F780E197E2B6
:1006E000F8013197F1F70197D9F780E197E2F80126
:1006F0003197F1F70197D9F780E197E2F801319747
:10070000F1F70197D9F780E197E2F8013197F1F716
:100710000197D9F780E197E2F8013197F1F7019756
:10072000D9F7C701B60120E030E040E151E40E9472
:10073000740C88230CF424C1C701B60120E030E01A
:1007400040E251E40E944C0C88230CF019C148BAD5
:1007500080E197E2F8013197F1F70197D9F780E14D
:1007600097E2F8013197F1F70197D9F780E197E225
:10077000F8013197F1F70197D9F780E197E2F80195
:100780003197F1F70197D9F780E197E2F8013197B6
:10079000F1F70197D9F780E197E2F8013197F1F786
:1007A0000197D9F780E197E2F8013197F1F70197C6
:1007B000D9F780E197E2F8013197F1F70197D9F77E
:1007C00080E197E2F8013197F1F70197D9F780E1DD
:1007D00097E2F8013197F1F70197D9F780E197E2B5
:1007E000F8013197F1F70197D9F780E197E2F80125
:1007F0003197F1F70197D9F780E197E2F801319746
:10080000F1F70197D9F780E197E2F8013197F1F715
:100810000197D9F780E197E2F8013197F1F7019755
:10082000D9F780E197E2F8013197F1F70197D9F70D
:1008300080E197E2F8013197F1F70197D9F780E16C
:1008400097E2F8013197F1F70197D9F780E197E244
:10085000F8013197F1F70197D9F780E197E2F801B4
:100860003197F1F70197D9F780E197E2F8013197D5
:10087000F1F70197D9F780E197E2F8013197F1F7A5
:100880000197D9F780E197E2F8013197F1F70197E5
:10089000D9F780E197E2F8013197F1F70197D9F79D
:1008A00080E197E2F8013197F1F70197D9F780E1FC
:1008B00097E2F8013197F1F70197D9F780E197E2D4
:1008C000F8013197F1F70197D9F780E197E2F80144
:1008D0003197F1F70197D9F780E197E2F801319765
:1008E000F1F70197D9F780E197E2F8013197F1F735
:1008F0000197D9F780E197E2F8013197F1F7019775
:10090000D9F780E197E2F8013197F1F70197D9F72C
:1009100080E197E2F8013197F1F70197D9F780E18B
:1009200097E2F8013197F1F70197D9F780E197E263
:10093000F8013197F1F70197D9F780E197E2F801D3
:100940003197F1F70197D9F780E197E2F8013197F4
:10095000F1F70197D9F780E197E2F8013197F1F7C4
:100960000197D9F780E197E2F8013197F1F7019704
:10097000D9F780E197E2F8013197F1F70197D9F7BC
:10098000C701B60120E030E040E251E40E94740C5F
:1009900088230CF424C1C701B60120E030E040E315
:1009A00051E40E944C0C88230CF019C138BA80E144
:1009B00097E2F8013197F1F70197D9F780E197E2D3
:1009C000F8013197F1F70197D9F780E197E2F80143
:1009D0003197F1F70197D9F780E197E2F801319764
:1009E000F1F70197D9F780E197E2F8013197F1F734
:1009F0000197D9F780E197E2F8013197F1F7019774
:100A0000D9F780E197E2F8013197F1F70197D9F72B
:100A100080E197E2F8013197F1F70197D9F780E18A
:100A200097E2F8013197F1F70197D9F780E197E262
:100A3000F8013197F1F70197D9F780E197E2F801D2
:100A40003197F1F70197D9F780E197E2F8013197F3
:100A5000F1F70197D9F780E197E2F8013197F1F7C3
:100A60000197D9F780E197E2F8013197F1F7019703
:100A7000D9F780E197E2F8013197F1F70197D9F7BB
:100A800080E197E2F8013197F1F70197D9F780E11A
:100A900097E2F8013197F1F70197D9F780E197E2F2
:100AA000F8013197F1F70197D9F780E197E2F80162
:100AB0003197F1F70197D9F780E197E2F801319783
:100AC000F1F70197D9F780E197E2F8013197F1F753
:100AD0000197D9F780E197E2F8013197F1F7019793
:100AE000D9F780E197E2F8013197F1F70197D9F74B
:100AF00080E197E2F8013197F1F70197D9F780E1AA
:100B000097E2F8013197F1F70197D9F780E197E281
:100B1000F8013197F1F70197D9F780E197E2F801F1
:100B20003197F1F70197D9F780E197E2F801319712
:100B3000F1F70197D9F780E197E2F8013197F1F7E2
:100B40000197D9F780E197E2F8013197F1F7019722
:100B5000D9F780E197E2F8013197F1F70197D9F7DA
:100B600080E197E2F8013197F1F70197D9F780E139
:100B700097E2F8013197F1F70197D9F780E197E211
:100B8000F8013197F1F70197D9F780E197E2F80181
:100B90003197F1F70197D9F780E197E2F8013197A2
:100BA000F1F70197D9F780E197E2F8013197F1F772
:100BB0000197D9F780E197E2F8013197F1F70197B2
:100BC000D9F780E197E2F8013197F1F70197D9F76A
:100BD00080E197E2F8013197F1F70197D9F7C70162
:100BE000B60120E030E040E351E40E94740C882319
:100BF0000CF424C1C701B60120E030E040E451E428
:100C00000E944C0C88230CF019C128BA80E197E2AD
:100C1000F8013197F1F70197D9F780E197E2F801F0
:100C20003197F1F70197D9F780E197E2F801319711
:100C3000F1F70197D9F780E197E2F8013197F1F7E1
:100C40000197D9F780E197E2F8013197F1F7019721
:100C5000D9F780E197E2F8013197F1F70197D9F7D9
:100C600080E197E2F8013197F1F70197D9F780E138
:100C700097E2F8013197F1F70197D9F780E197E210
:100C8000F8013197F1F70197D9F780E197E2F80180
:100C90003197F1F70197D9F780E197E2F8013197A1
:100CA000F1F70197D9F780E197E2F8013197F1F771
:100CB0000197D9F780E197E2F8013197F1F70197B1
:100CC000D9F780E197E2F8013197F1F70197D9F769
:100CD00080E197E2F8013197F1F70197D9F780E1C8
:100CE00097E2F8013197F1F70197D9F780E197E2A0
:100CF000F8013197F1F70197D9F780E197E2F80110
:100D00003197F1F70197D9F780E197E2F801319730
:100D1000F1F70197D9F780E197E2F8013197F1F700
:100D20000197D9F780E197E2F8013197F1F7019740
:100D3000D9F780E197E2F8013197F1F70197D9F7F8
:100D400080E197E2F8013197F1F70197D9F780E157
:100D500097E2F8013197F1F70197D9F780E197E22F
:100D6000F8013197F1F70197D9F780E197E2F8019F
:100D70003197F1F70197D9F780E197E2F8013197C0
:100D8000F1F70197D9F780E197E2F8013197F1F790
:100D90000197D9F780E197E2F8013197F1F70197D0
:100DA000D9F780E197E2F8013197F1F70197D9F788
:100DB00080E197E2F8013197F1F70197D9F780E1E7
:100DC00097E2F8013197F1F70197D9F780E197E2BF
:100DD000F8013197F1F70197D9F780E197E2F8012F
:100DE0003197F1F70197D9F780E197E2F801319750
:100DF000F1F70197D9F780E197E2F8013197F1F720
:100E00000197D9F780E197E2F8013197F1F701975F
:100E1000D9F780E197E2F8013197F1F70197D9F717
:100E200080E197E2F8013197F1F70197D9F780E176
:100E300097E2F8013197F1F70197D9F7C701B601A9
:100E400020E030E040E451E40E94740C88230CF46C
:100E500025C1C701B60120E030E040E551E40E9421
:100E60004C0C88230CF01AC189E288BB80E197E220
:100E7000F8013197F1F70197D9F780E197E2F8018E
:100E80003197F1F70197D9F780E197E2F8013197AF
:100E9000F1F70197D9F780E197E2F8013197F1F77F
:100EA0000197D9F780E197E2F8013197F1F70197BF
:100EB000D9F780E197E2F8013197F1F70197D9F777
:100EC00080E197E2F8013197F1F70197D9F780E1D6
:100ED00097E2F8013197F1F70197D9F780E197E2AE
:100EE000F8013197F1F70197D9F780E197E2F8011E
:100EF0003197F1F70197D9F780E197E2F80131973F
:100F0000F1F70197D9F780E197E2F8013197F1F70E
:100F10000197D9F780E197E2F8013197F1F701974E
:100F2000D9F780E197E2F8013197F1F70197D9F706
:100F300080E197E2F8013197F1F70197D9F780E165
:100F400097E2F8013197F1F70197D9F780E197E23D
:100F5000F8013197F1F70197D9F780E197E2F801AD
:100F60003197F1F70197D9F780E197E2F8013197CE
:100F7000F1F70197D9F780E197E2F8013197F1F79E
:100F80000197D9F780E197E2F8013197F1F70197DE
:100F9000D9F780E197E2F8013197F1F70197D9F796
:100FA00080E197E2F8013197F1F70197D9F780E1F5
:100FB00097E2F8013197F1F70197D9F780E197E2CD
:100FC000F8013197F1F70197D9F780E197E2F8013D
:100FD0003197F1F70197D9F780E197E2F80131975E
:100FE000F1F70197D9F780E197E2F8013197F1F72E
:100FF0000197D9F780E197E2F8013197F1F701976E
:10100000D9F780E197E2F8013197F1F70197D9F725
:1010100080E197E2F8013197F1F70197D9F780E184
:1010200097E2F8013197F1F70197D9F780E197E25C
:10103000F8013197F1F70197D9F780E197E2F801CC
:101040003197F1F70197D9F780E197E2F8013197ED
:10105000F1F70197D9F780E197E2F8013197F1F7BD
:101060000197D9F780E197E2F8013197F1F70197FD
:10107000D9F780E197E2F8013197F1F70197D9F7B5
:1010800080E197E2F8013197F1F70197D9F780E114
:1010900097E2F8013197F1F70197D9F7C701B60147
:1010A00020E030E040E551E40E94740C88230CF409
:1010B00025C1C701B60120E030E040E651E40E94BE
:1010C0004C0C88230CF01AC18CE288BB80E197E2BB
:1010D000F8013197F1F70197D9F780E197E2F8012C
:1010E0003197F1F70197D9F780E197E2F80131974D
:1010F000F1F70197D9F780E197E2F8013197F1F71D
:101100000197D9F780E197E2F8013197F1F701975C
:10111000D9F780E197E2F8013197F1F70197D9F714
:1011200080E197E2F8013197F1F70197D9F780E173
:1011300097E2F8013197F1F70197D9F780E197E24B
:10114000F8013197F1F70197D9F780E197E2F801BB
:101150003197F1F70197D9F780E197E2F8013197DC
:10116000F1F70197D9F780E197E2F8013197F1F7AC
:101170000197D9F780E197E2F8013197F1F70197EC
:10118000D9F780E197E2F8013197F1F70197D9F7A4
:1011900080E197E2F8013197F1F70197D9F780E103
:1011A00097E2F8013197F1F70197D9F780E197E2DB
:1011B000F8013197F1F70197D9F780E197E2F8014B
:1011C0003197F1F70197D9F780E197E2F80131976C
:1011D000F1F70197D9F780E197E2F8013197F1F73C
:1011E0000197D9F780E197E2F8013197F1F701977C
:1011F000D9F780E197E2F8013197F1F70197D9F734
:1012000080E197E2F8013197F1F70197D9F780E192
:1012100097E2F8013197F1F70197D9F780E197E26A
:10122000F8013197F1F70197D9F780E197E2F801DA
:101230003197F1F70197D9F780E197E2F8013197FB
:10124000F1F70197D9F780E197E2F8013197F1F7CB
:101250000197D9F780E197E2F8013197F1F701970B
:10126000D9F780E197E2F8013197F1F70197D9F7C3
:1012700080E197E2F8013197F1F70197D9F780E122
:1012800097E2F8013197F1F70197D9F780E197E2FA
:10129000F8013197F1F70197D9F780E197E2F8016A
:1012A0003197F1F70197D9F780E197E2F80131978B
:1012B000F1F70197D9F780E197E2F8013197F1F75B
:1012C0000197D9F780E197E2F8013197F1F701979B
:1012D000D9F780E197E2F8013197F1F70197D9F753
:1012E00080E197E2F8013197F1F70197D9F780E1B2
:1012F00097E2F8013197F1F70197D9F7C701B601E5
:1013000020E030E040E651E40E94740C88230CF4A5
:1013100025C1C701B60120E030E040E751E40E945A
:101320004C0C88230CF01AC18EE288BB80E197E256
:10133000F8013197F1F70197D9F780E197E2F801C9
:101340003197F1F70197D9F780E197E2F8013197EA
:10135000F1F70197D9F780E197E2F8013197F1F7BA
:101360000197D9F780E197E2F8013197F1F70197FA
:10137000D9F780E197E2F8013197F1F70197D9F7B2
:1013800080E197E2F8013197F1F70197D9F780E111
:1013900097E2F8013197F1F70197D9F780E197E2E9
:1013A000F8013197F1F70197D9F780E197E2F80159
:1013B0003197F1F70197D9F780E197E2F80131977A
:1013C000F1F70197D9F780E197E2F8013197F1F74A
:1013D0000197D9F780E197E2F8013197F1F701978A
:1013E000D9F780E197E2F8013197F1F70197D9F742
:1013F00080E197E2F8013197F1F70197D9F780E1A1
:1014000097E2F8013197F1F70197D9F780E197E278
:10141000F8013197F1F70197D9F780E197E2F801E8
:101420003197F1F70197D9F780E197E2F801319709
:10143000F1F70197D9F780E197E2F8013197F1F7D9
:101440000197D9F780E197E2F8013197F1F7019719
:10145000D9F780E197E2F8013197F1F70197D9F7D1
:1014600080E197E2F8013197F1F70197D9F780E130
:1014700097E2F8013197F1F70197D9F780E197E208
:10148000F8013197F1F70197D9F780E197E2F80178
:101490003197F1F70197D9F780E197E2F801319799
:1014A000F1F70197D9F780E197E2F8013197F1F769
:1014B0000197D9F780E197E2F8013197F1F70197A9
:1014C000D9F780E197E2F8013197F1F70197D9F761
:1014D00080E197E2F8013197F1F70197D9F780E1C0
:1014E00097E2F8013197F1F70197D9F780E197E298
:1014F000F8013197F1F70197D9F780E197E2F80108
:101500003197F1F70197D9F780E197E2F801319728
:10151000F1F70197D9F780E197E2F8013197F1F7F8
:101520000197D9F780E197E2F8013197F1F7019738
:10153000D9F780E197E2F8013197F1F70197D9F7F0
:1015400080E197E2F8013197F1F70197D9F780E14F
:1015500097E2F8013197F1F70197D9F7C701B60182
:1015600020E030E040E751E40E94740C88230CF442
:1015700025C1C701B60120E030E040E851E40E94F7
:101580004C0C88230CF01AC182E388BB80E197E2FF
:10159000F8013197F1F70197D9F780E197E2F80167
:1015A0003197F1F70197D9F780E197E2F801319788
:1015B000F1F70197D9F780E197E2F8013197F1F758
:1015C0000197D9F780E197E2F8013197F1F7019798
:1015D000D9F780E197E2F8013197F1F70197D9F750
:1015E00080E197E2F8013197F1F70197D9F780E1AF
:1015F00097E2F8013197F1F70197D9F780E197E287
:10160000F8013197F1F70197D9F780E197E2F801F6
:101610003197F1F70197D9F780E197E2F801319717
:10162000F1F70197D9F780E197E2F8013197F1F7E7
:101630000197D9F780E197E2F8013197F1F7019727
:10164000D9F780E197E2F8013197F1F70197D9F7DF
:1016500080E197E2F8013197F1F70197D9F780E13E
:1016600097E2F8013197F1F70197D9F780E197E216
:10167000F8013197F1F70197D9F780E197E2F80186
:101680003197F1F70197D9F780E197E2F8013197A7
:10169000F1F70197D9F780E197E2F8013197F1F777
:1016A0000197D9F780E197E2F8013197F1F70197B7
:1016B000D9F780E197E2F8013197F1F70197D9F76F
:1016C00080E197E2F8013197F1F70197D9F780E1CE
:1016D00097E2F8013197F1F70197D9F780E197E2A6
:1016E000F8013197F1F70197D9F780E197E2F80116
:1016F0003197F1F70197D9F780E197E2F801319737
:10170000F1F70197D9F780E197E2F8013197F1F706
:101710000197D9F780E197E2F8013197F1F7019746
:10172000D9F780E197E2F8013197F1F70197D9F7FE
:1017300080E197E2F8013197F1F70197D9F780E15D
:1017400097E2F8013197F1F70197D9F780E197E235
:10175000F8013197F1F70197D9F780E197E2F801A5
:101760003197F1F70197D9F780E197E2F8013197C6
:10177000F1F70197D9F780E197E2F8013197F1F796
:101780000197D9F780E197E2F8013197F1F70197D6
:10179000D9F780E197E2F8013197F1F70197D9F78E
:1017A00080E197E2F8013197F1F70197D9F780E1ED
:1017B00097E2F8013197F1F70197D9F7369A369900
:1017C000FECF84B195B10E948D000894A11CB11C7C
:1017D0008AE0A816B10414F40C94EF00AA24BB24E8
:1017E0000C94EF00EF92FF920F931F93CF93DF9330
:1017F0007C01DC010D900020E9F78D0101501040C3
:10180000081B190BC0E0D0E009C0F701EC0FFD1F69
:10181000808161E070E00E9450002196C017D107DE
:10182000A4F3DF91CF911F910F91FF90EF90089556
:101830000F931F93DF93CF93CDB7DEB7C656D0403B
:101840000FB6F894DEBF0FBECDBF8C01CB01BA013D
:101850000E94A10017FF0AC08DE289831A82CE017F
:1018600001960E94F20B109501951F4FC801BE0111
:101870006D5F7F4F4AE050E00E94780C0E94F20BAF
:10188000CA59DF4F0FB6F894DEBF0FBECDBFCF9160
:10189000DF911F910F91089503D008F481E008951E
:1018A000990F0008550FAA0BE0E8FEEF1616170671
:1018B000E807F907C0F012161306E407F50798F0D9
:1018C000621B730B840B950B39F40A2661F0232BF2
:1018D000242B252B21F408950A2609F4A140A6956E
:1018E0008FEF811D811D0895DBDF08F48FEF0895D0
:1018F000FB019F01E8944230C4F04532B4F44A3011
:1019000029F497FB1EF4909581959F4F642F7727BC
:101910000E94A90C805D8A330CF0895D8193CB0114
:101920000097A1F716F45DE251931082C9010C945F
:10193000990CDC01FC01672F71917723E1F7329755
:1019400004C07C916D9370836291AE17BF07C8F39A
:101950000895AA1BBB1B51E107C0AA1FBB1FA617F6
:10196000B70710F0A61BB70B881F991F5A95A9F748
:0E19700080959095BC01CD010895F894FFCFAD
:10197E00B81E49410AD70F413D0A77415C8F1A4183
:10198E00EC515C411F8523417B146E411F85134131
:08199E007B144E41AE470541E8
:00000001FF
