:100000000C942A000C9434000C9434000C943400AA
:100010000C9434000C9434000C9434000C94340090
:100020000C9434000C9434000C9434000C94340080
:100030000C9434000C9434000C9434000C94340070
:100040000C9434000C9434000C9434000C94340060
:100050000C94340011241FBECFE5D4E0DEBFCDBF29
:100060000E9401010C94A2010C940000AD9A80E35F
:1000700095E70197F1F7AD980895AF9A0895AF9875
:100080000895AE980895AE9A0895982F92959F700E
:10009000482F4F7061157105C9F485B3807F982B87
:1000A00095BBAF98AE98AD9A20E335E7C9010197AB
:1000B000F1F7AD9885B3807F482B45BBAF98AE98DC
:1000C000AD9AC9010197F1F7AD98089561307105B6
:1000D000C1F485B3807F982B95BBAF9AAE98AD9A4B
:1000E00020E335E7C9010197F1F7AD9885B3807F2B
:1000F000482B45BBAF9AAE98AD9AC9010197F1F76D
:10010000AD9808958FEF84BBAF98AE9881E060E022
:1001100070E00E9445008FE060E070E00E944500C2
:1001200088E260E070E00E9445000895613071054A
:1001300031F4815860E070E00E944500089562301B
:10014000710529F4815460E070E00E944500089533
:10015000369A90ED97B997B18F71892B87B924B1F1
:1001600035B1C9010895EF92FF920F931F93CF937A
:10017000DF937C01DC010D900020E9F78D01015037
:100180001040081B190BC0E0D0E009C0F701EC0FCC
:10019000FD1F808161E070E00E9445002196C0173C
:1001A000D107A4F3DF91CF911F910F91FF90EF90B2
:1001B00008950F931F93DF93CF93CDB7DEB7C45647
:1001C000D0400FB6F894DEBF0FBECDBF8C01CB017F
:1001D000BA010E949600C801BE016F5F7F4F4AE0DE
:1001E00050E00E945D010E94B300CC59DF4F0FB672
:1001F000F894DEBF0FBECDBFCF91DF911F910F915D
:1002000008950F931F93CF93DF931ABA80E281BBB7
:100210001BBA12BA87EC86B90E948200369A80ED2A
:1002200087B987B187B904B115B1C80161E070E041
:1002300041E050E00E94D90088E99AE32CE231E0E5
:10024000F9013197F1F70197D9F7369A80ED87B91F
:10025000389AC4B1D5B10E948200CE0167E070E047
:1002600041E050E00E94D90088E99AE32CE231E0B5
:10027000F9013197F1F70197D9F70E948200C8017F
:100280008C1B9D0B97FF03C0909581959F4F6DE050
:1002900070E041E050E00E94D90088E99AE32CE246
:1002A00031E0F9013197F1F70197D9F780E090E05B
:1002B000DF91CF911F910F910895FB019F01E89469
:1002C0004230C4F04532B4F44A3029F497FB1EF4AE
:1002D000909581959F4F642F77270E948E01805DB6
:1002E0008A330CF0895D8193CB010097A1F716F456
:1002F0005DE251931082C9010C947E01DC01FC0186
:10030000672F71917723E1F7329704C07C916D9349
:1003100070836291AE17BF07C8F30895AA1BBB1B79
:1003200051E107C0AA1FBB1FA617B70710F0A61BF5
:10033000B70B881F991F5A95A9F780959095BC0116
:08034000CD010895F894FFCFF0
:00000001FF
