:100000000C942A000C9447000C94BB000C944700FD
:100010000C9447000C9447000C9447000C94470044
:100020000C9447000C9447000C9447000C94470034
:100030000C9447000C9447000C9447000C94470024
:100040000C9447000C9447000C9447000C94470014
:100050000C94470011241FBECFE5D4E0DEBFCDBF16
:1000600010E0A0E6B0E0E8EDF3E002C005900D92EC
:10007000A236B107D9F710E0A2E6B0E001C01D92A8
:10008000A636B107E1F70E9428010C94EA010C940E
:100090000000AD9A80E395E70197F1F7AD980895D8
:1000A000AF9A0895AF980895AE980895AE9A0895BE
:1000B000982F92959F70482F4F7061157105C9F464
:1000C00085B3807F982B95BBAF98AE98AD9A20E30F
:1000D00035E7C9010197F1F7AD9885B3807F482BCB
:1000E00045BBAF98AE98AD9AC9010197F1F7AD98AD
:1000F000089561307105C1F485B3807F982B95BB5D
:10010000AF9AAE98AD9A20E335E7C9010197F1F7B0
:10011000AD9885B3807F482B45BBAF9AAE98AD9A1A
:10012000C9010197F1F7AD9808958FEF84BBAF989F
:10013000AE9881E060E070E00E9458008FE060E0DF
:1001400070E00E94580088E260E070E00E94580071
:1001500008956130710531F4815860E070E00E94CB
:10016000580008956230710529F4815460E070E010
:100170000E94580008951F920F920FB60F921124FB
:100180008F939F938091620090916300019690936A
:100190006300809362009F918F910F900FBE0F902C
:1001A0001F90189587E085BD089582E88FBD81E195
:1001B0008EBD0895EF92FF920F931F93CF93DF931D
:1001C0007C01DC010D900020E9F78D010150104009
:1001D000081B190BC0E0D0E009C0F701EC0FFD1FB0
:1001E000808161E070E00E9458002196C017D1071D
:1001F000A4F3DF91CF911F910F91FF90EF9008959D
:100200000F931F93DF93CF93CDB7DEB7C456D04083
:100210000FB6F894DEBF0FBECDBF8C01CB01BA0183
:100220000E94A900C801BE016F5F7F4F4AE050E005
:100230000E94A5010E94DA00CC59DF4F0FB6F89456
:10024000DEBF0FBECDBFCF91DF911F910F910895FB
:10025000CF93DF9381E281BB84E893E097BD86BDB5
:1002600084EF91E09BBD8ABD8FB780688FBF909A65
:1002700080E88BBF84E085BF82E88FBD81E18EBDC1
:100280000E94950087E085BDCCE2D1E084B58A3F2D
:10029000E8F3F894809160009091610020916200F1
:1002A00030916300821B930B9093650080936400F0
:1002B000809162009091630061E070E041E050E065
:1002C0000E94000180916400909165006AE070E0F6
:1002D00041E050E00E9400018AB59BB561E070E00A
:1002E00042E050E00E94000180916400909165001E
:1002F000181619065CF48AB59BB5209164003091FC
:1003000065000597820F931F9BBD8ABD8091640095
:100310009091650097FF0BC08AB59BB52091640052
:10032000309165000596821B930B9BBD8ABD88EBBF
:100330009BE0FE013197F1F70197D9F7789410927D
:1003400063001092620014BCA1CFFB019F01E894EE
:100350004230C4F04532B4F44A3029F497FB1EF41D
:10036000909581959F4F642F77270E94D601805DDD
:100370008A330CF0895D8193CB010097A1F716F4C5
:100380005DE251931082C9010C94C601DC01FC01AD
:10039000672F71917723E1F7329704C07C916D93B9
:1003A00070836291AE17BF07C8F30895AA1BBB1BE9
:1003B00051E107C0AA1FBB1FA617B70710F0A61B65
:1003C000B70B881F991F5A95A9F780959095BC0186
:0803D000CD010895F894FFCF60
:0203D8000B0018
:00000001FF
