:100000000C942A000C9434000C9434000C943400AA
:100010000C9434000C9434000C9434000C94340090
:100020000C9434000C9434000C9434000C94340080
:100030000C9434000C9434000C9434000C94340070
:100040000C9434000C9434000C9434000C94340060
:100050000C94340011241FBECFE5D4E0DEBFCDBF29
:100060000E9436000C944E000C9400008DEF81BB72
:1000700082B38FEF82BB80B78B7F80BF41E02CE2E1
:1000800031E0819B02C042BB01C012BA88E893E113
:10009000F9013197F1F70197A1F3FACFF894FFCF67
:00000001FF
