:100000000C942A000C9434000C9434000C943400AA
:100010000C9434000C9434000C9434000C94340090
:100020000C9434000C9434000C9434000C94340080
:100030000C9434000C9434000C9434000C94340070
:100040000C9434000C9434000C9434000C94340060
:100050000C94340011241FBECFE5D4E0DEBFCDBF29
:100060000E9436000C944F000C9400008BE78ABB72
:1000700020E030E040E02BBB89B32F5F3F4F84701E
:1000800090E0022E02C0880F991F0A94E2F7482BD5
:100090002430310581F74BBB80E090E00895F8945F
:0200A000FFCF90
:00000001FF
