:100000000C942A000C943C000C94B5000C943C0019
:100010000C943C000C943C000C943C000C943C0070
:100020000C943C000C943C000C943C000C943C0060
:100030000C943C000C943C000C943C000C943C0050
:100040000C943C000C943C000C943C000C943C0040
:100050000C943C0011241FBECFE5D4E0DEBFCDBF21
:1000600010E0A0E6B0E001C01D92A236B107E1F7B2
:100070000E941C010C948A010C940000AD9A80E34C
:1000800095E70197F1F7AD980895AF9A0895AF9865
:100090000895AE980895AE9A0895982F92959F70FE
:1000A000482F4F7061157105C9F485B3807F982B77
:1000B00095BBAF98AE98AD9A20E335E7C90101979B
:1000C000F1F7AD9885B3807F482B45BBAF98AE98CC
:1000D000AD9AC9010197F1F7AD98089561307105A6
:1000E000C1F485B3807F982B95BBAF9AAE98AD9A3B
:1000F00020E335E7C9010197F1F7AD9885B3807F1B
:10010000482B45BBAF9AAE98AD9AC9010197F1F75C
:10011000AD9808958FEF84BBAF98AE9881E060E012
:1001200070E00E944D008FE060E070E00E944D00A2
:1001300088E260E070E00E944D0008956130710532
:1001400031F4815860E070E00E944D000895623003
:10015000710529F4815460E070E00E944D0008951B
:1001600087E085BD089515BC08951F920F920FB6C4
:100170000F9211248F939F93F89480916000909137
:1001800061000196909361008093600078949F9144
:100190008F910F900FBE0F901F901895EF92FF92C6
:1001A0000F931F93CF93DF937C01DC010D90002010
:1001B000E9F78D0101501040081B190BC0E0D0E099
:1001C00009C0F701EC0FFD1F808161E070E00E9423
:1001D0004D002196C017D107A4F3DF91CF911F9155
:1001E0000F91FF90EF9008950F931F93DF93CF939C
:1001F000CDB7DEB7C456D0400FB6F894DEBF0FBE01
:10020000CDBF8C01CB01BA010E949E00C801BE0186
:100210006F5F7F4F4AE050E00E9445010E94CE0090
:10022000CC59DF4F0FB6F894DEBF0FBECDBFCF91D4
:10023000DF911F910F9108951F93CF93DF9388E073
:1002400085BF80E88BBF81E181BB12BA0E948A0022
:1002500017E0CCE2D1E015BD789484B58F3FE9F783
:1002600014BCF89415BC809160009091610061E02D
:1002700070E041E050E00E94F40088EE93E0FE015F
:100280003197F1F70197D9F7E6CFFB019F01E89489
:100290004230C4F04532B4F44A3029F497FB1EF4DE
:1002A000909581959F4F642F77270E947601805DFE
:1002B0008A330CF0895D8193CB010097A1F716F486
:1002C0005DE251931082C9010C946601DC01FC01CE
:1002D000672F71917723E1F7329704C07C916D937A
:1002E00070836291AE17BF07C8F30895AA1BBB1BAA
:1002F00051E107C0AA1FBB1FA617B70710F0A61B26
:10030000B70B881F991F5A95A9F780959095BC0146
:08031000CD010895F894FFCF20
:00000001FF
