:100000000C942A000C9434000C9434000C943400AA
:100010000C9434000C9434000C9434000C94340090
:100020000C9434000C9434000C9434000C94340080
:100030000C9434000C9434000C9434000C94340070
:100040000C9434000C9434000C9434000C94340060
:100050000C94340011241FBECFE5D4E0DEBFCDBF29
:100060000E940B010C9473010C940000AD9A80E384
:1000700095E70197F1F7AD980895AF9A0895AF9875
:100080000895AE980895AE9A0895982F92959F700E
:10009000482F4F7061157105C9F485B3807F982B87
:1000A00095BBAF98AE98AD9A20E335E7C9010197AB
:1000B000F1F7AD9885B3807F482B45BBAF98AE98DC
:1000C000AD9AC9010197F1F7AD98089561307105B6
:1000D000C1F485B3807F982B95BBAF9AAE98AD9A4B
:1000E00020E335E7C9010197F1F7AD9885B3807F2B
:1000F000482B45BBAF9AAE98AD9AC9010197F1F76D
:10010000AD9808958FEF84BBAF98AE9881E060E022
:1001100070E00E9445008FE060E070E00E944500C2
:1001200088E260E070E00E9445000895613071054A
:1001300031F4815860E070E00E944500089562301B
:10014000710529F4815460E070E00E944500089533
:1001500090BD89B988E08AB98EE880BD08951ABA41
:100160001BBA86EC86B980EC87B9369A3699FECFF1
:1001700008955D9BFECF8CB90895EF92FF920F9387
:100180001F93CF93DF937C01DC010D900020E9F7F2
:100190008D0101501040081B190BC0E0D0E009C0D0
:1001A000F701EC0FFD1F808161E070E00E944500C7
:1001B0002196C017D107A4F3DF91CF911F910F9122
:1001C000FF90EF9008950F931F93DF93CF93CDB7D8
:1001D000DEB7C456D0400FB6F894DEBF0FBECDBF19
:1001E0008C01CB01BA010E949600C801BE016F5F6D
:1001F0007F4F4AE050E00E942E010E94BD00CC5982
:10020000DF4F0FB6F894DEBF0FBECDBFCF91DF91A9
:100210001F910F9108951F931ABA82E081BB12BA01
:100220000E94820086EC86B980EC87B910BC8CE015
:1002300089B988E08AB98EE880BD369A14E6369A84
:100240003699FECF84E690E061E070E041E050E056
:100250000E94E3005D9BFECF1CB9F1CFFB019F0123
:10026000E8944230C4F04532B4F44A3029F497FBA4
:100270001EF4909581959F4F642F77270E945F0110
:10028000805D8A330CF0895D8193CB010097A1F7E3
:1002900016F45DE251931082C9010C944F01DC0108
:1002A000FC01672F71917723E1F7329704C07C91AD
:1002B0006D9370836291AE17BF07C8F30895AA1BB0
:1002C000BB1B51E107C0AA1FBB1FA617B70710F041
:1002D000A61BB70B881F991F5A95A9F78095909573
:0A02E000BC01CD010895F894FFCF92
:00000001FF
