:100000000C942A000C943F000C943F000C943F0089
:100010000C943F000C943F000C943F000C943F0064
:100020000C943F000C943F000C943F000C943F0054
:100030000C943F000C943F000C943F000C943F0044
:100040000C943F000C943F000C943F000C943F0034
:100050000C943F0011241FBECFE5D4E0DEBFCDBF1E
:1000600010E0A0E6B0E0E4EBF2E002C005900D92F3
:10007000AC36B107D9F70E94D9000C9458010C9402
:100080000000AD9A80E395E70197F1F7AD980895E8
:10009000AF9A0895AF980895AE980895AE9A0895CE
:1000A000982F92959F70482F4F7061157105C9F474
:1000B00085B3807F982B95BBAF98AE98AD9A20E31F
:1000C00035E7C9010197F1F7AD9885B3807F482BDB
:1000D00045BBAF98AE98AD9AC9010197F1F7AD98BD
:1000E000089561307105C1F485B3807F982B95BB6D
:1000F000AF9AAE98AD9A20E335E7C9010197F1F7C1
:10010000AD9885B3807F482B45BBAF9AAE98AD9A2A
:10011000C9010197F1F7AD9808958FEF84BBAF98AF
:10012000AE9881E060E070E00E9450008FE060E0F7
:1001300070E00E94500088E260E070E00E94500091
:1001400008956130710531F4815860E070E00E94DB
:10015000500008956230710529F4815460E070E028
:100160000E9450000895EF92FF920F931F93CF9338
:10017000DF937C01DC010D900020E9F78D01015037
:100180001040081B190BC0E0D0E009C0F701EC0FCC
:10019000FD1F808161E070E00E9450002196C01731
:1001A000D107A4F3DF91CF911F910F91FF90EF90B2
:1001B0000895CF93DF93CCE2D1E00E948D0080E6DA
:1001C00090E00E94B3008FEF9FEFFE013197F1F7AF
:1001D0000197D9F7F2CF0F931F93DF93CF93CDB74A
:1001E000DEB7C456D0400FB6F894DEBF0FBECDBF09
:1001F0008C01CB01BA010E94A100C801BE016F5F52
:100200007F4F4AE050E00E9413010E94B300CC5996
:10021000DF4F0FB6F894DEBF0FBECDBFCF91DF9199
:100220001F910F910895FB019F01E8944230C4F0A3
:100230004532B4F44A3029F497FB1EF49095819529
:100240009F4F642F77270E944401805D8A330CF012
:10025000895D8193CB010097A1F716F45DE251937C
:100260001082C9010C943401DC01FC01672F7191EB
:100270007723E1F7329704C07C916D93708362918C
:10028000AE17BF07C8F30895AA1BBB1B51E107C0F7
:10029000AA1FBB1FA617B70710F0A61BB70B881F16
:1002A000991F5A95A9F780959095BC01CD010895A5
:0402B000F894FFCFF0
:0C02B4004D616D612069732047723800B5
:00000001FF
