:100000000C942A000C9447000C94BB000C944700FD
:100010000C9447000C9447000C9447000C94470044
:100020000C9447000C9447000C9447000C94470034
:100030000C9447000C9447000C9447000C94470024
:100040000C9447000C9447000C9447000C94470014
:100050000C94470011241FBECFE5D4E0DEBFCDBF16
:1000600010E0A0E6B0E0E0E3F3E002C005900D92FE
:10007000A436B107D9F710E0A4E6B0E001C01D92A4
:10008000A836B107E1F70E941B010C9496010C946D
:100090000000AD9A80E395E70197F1F7AD980895D8
:1000A000AF9A0895AF980895AE980895AE9A0895BE
:1000B000982F92959F70482F4F7061157105C9F464
:1000C00085B3807F982B95BBAF98AE98AD9A20E30F
:1000D00035E7C9010197F1F7AD9885B3807F482BCB
:1000E00045BBAF98AE98AD9AC9010197F1F7AD98AD
:1000F000089561307105C1F485B3807F982B95BB5D
:10010000AF9AAE98AD9A20E335E7C9010197F1F7B0
:10011000AD9885B3807F482B45BBAF9AAE98AD9A1A
:10012000C9010197F1F7AD9808958FEF84BBAF989F
:10013000AE9881E060E070E00E9458008FE060E0DF
:1001400070E00E94580088E260E070E00E94580071
:1001500008956130710531F4815860E070E00E94CB
:10016000580008956230710529F4815460E070E010
:100170000E94580008951F920F920FB60F921124FB
:100180008F939F93F89480916400909165000196FD
:10019000909365008093640078949F918F910F9065
:1001A0000FBE0F901F90189587E085BD0895EF92C0
:1001B000FF920F931F93CF93DF937C01DC010D908F
:1001C0000020E9F78D0101501040081B190BC0E019
:1001D000D0E009C0F701EC0FFD1F808161E070E005
:1001E0000E9458002196C017D107A4F3DF91CF9148
:1001F0001F910F91FF90EF900895DF93CF93CDB7AC
:10020000DEB7C456D0400FB6F894DEBF0FBECDBFE8
:10021000BE016F5F7F4F4AE050E00E9451010E9493
:10022000D700CC59DF4F0FB6F894DEBF0FBECDBF5D
:10023000CF91DF9108951F93CF93DF9381E181BB2D
:10024000909A80E88BBF88E085BF17E0CCE2D1E0D0
:100250000E94950014BC789415BD84B58A3FE8F3DC
:10026000F89487E090E061E070E00E94A90080E6E9
:1002700090E00E94D700809164009091650061E059
:1002800070E041E050E00E94FD0010926500109285
:10029000640088EB9BE0FE013197F1F70197D9F7F5
:1002A000D7CFFB019F01E8944230C4F04532B4F44B
:1002B0004A3029F497FB1EF4909581959F4F642F47
:1002C00077270E948201805D8A330CF0895D8193DB
:1002D000CB010097A1F716F45DE251931082C9019A
:1002E0000C947201DC01FC01672F71917723E1F717
:1002F000329704C07C916D9370836291AE17BF07F3
:10030000C8F30895AA1BBB1B51E107C0AA1FBB1F5E
:10031000A617B70710F0A61BB70B881F991F5A9591
:10032000A9F780959095BC01CD010895F894FFCF71
:040330006F75740071
:00000001FF
