:100000000C942A000C943C000C94B0000C943C001E
:100010000C943C000C943C000C943C000C943C0070
:100020000C943C000C943C000C943C000C943C0060
:100030000C943C000C943C000C943C000C943C0050
:100040000C943C000C943C000C943C000C943C0040
:100050000C943C0011241FBECFE5D4E0DEBFCDBF21
:1000600010E0A0E6B0E001C01D92A636B107E1F7AE
:100070000E9448010C941C020C940000AD9A88EB7D
:100080009BE00197F1F7AD980895AE9A089585B376
:100090008F7C85BB0895AF9A0895AF980895982FE7
:1000A00092959F70482F4F706130710591F495BB08
:1000B000AF9A85B38F7C85BBAD9A28EB3BE0C90135
:1000C0000197F1F7AD98C9010197F1F745BBAF9AD8
:1000D00011C095BBAF9885B38F7C85BBAD9A28EBDB
:1000E0003BE0C9010197F1F7AD98C9010197F1F71C
:1000F00045BBAF9885B38F7C85BBAD9AC90101978D
:10010000F1F7AD98C9010197F1F708958FEF84BB1E
:10011000AF9885B38F7C85BB81E060E070E00E9482
:100120004F008FE060E070E00E944F0088E260E0E6
:1001300070E00E944F00089501976130710511F43D
:10014000805801C0805460E070E00E944F00089524
:100150008FB780688FBF80E88BBF88E085BF089528
:100160001F920F920FB60F9211248F939F93F894C2
:10017000809160009091610001969093610080935E
:10018000600078949F918F910F900FBE0F901F90F9
:1001900018958FB582608FBD8FB58E7F8FBD8EB560
:1001A00080618EBD8EB5877F8EBD8FB580688FBD17
:1001B0008FB58F7B8FBD8EB582608EBD8EB58A7FE9
:1001C0008EBD0895CF92DF92EF92FF920F931F930F
:1001D000CF93DF937C01DC010D900020E9F78D01C6
:1001E00001501040081B190BC0E0D0E08CE2C82E73
:1001F00081E0D82E10C0F701EC0FFD1F808161E077
:1002000070E00E944F0088EE93E0F6013197F1F71D
:100210000197D9F72196C017D1076CF3DF91CF91E1
:100220001F910F91FF90EF90DF90CF9008950F9363
:100230001F93DF93CF93CDB7DEB7C456D0400FB630
:10024000F894DEBF0FBECDBF8C01CB01BA010E9476
:100250009C00C801BE016F5F7F4F4AE050E00E94E2
:10026000D7010E94E20088EB9BE02CE231E0F9012B
:100270003197F1F70197D9F7CC59DF4F0FB6F894C2
:10028000DEBF0FBECDBFCF91DF911F910F910895BB
:10029000EF92FF920F931F93CF93DF930E948600FC
:1002A00081E181BB8B9888EE93E097BD86BD82E3A8
:1002B00090E099BD88BD0FE010E020E8E22E98E0C4
:1002C000F92ECCE2D1E00E94C900109365000093A2
:1002D000640085B5876085BD85B5877B85BD8FB793
:1002E00080688FBFEBBEF5BE84B58F3FE9F714BCC5
:1002F000F89485B5887F85BD1EBC80916000909183
:10030000610061E070E041E050E00E94170188EB7D
:100310009BE0FE013197F1F70197D9F7209160003A
:10032000309161008091640090916500281B390B29
:1003300030936300209362001216130634F488B5DC
:1003400099B50396821B930B07C037FF07C088B58A
:1003500099B50397820F931F99BD88BD88B599B54C
:1003600065E070E041E050E00E94170188EB9BE0FF
:10037000FE013197F1F70197D9F7809164009091D0
:10038000650061E070E042E050E00E94170188EBF8
:100390009BE0FE013197F1F70197D9F710926500C4
:1003A0001092640010926100109260008CCFFB01EB
:1003B0009F01E8944230C4F04532B4F44A3029F445
:1003C00097FB1EF4909581959F4F642F77270E948D
:1003D0000802805D8A330CF0895D8193CB01009720
:1003E000A1F716F45DE251931082C9010C94F80153
:1003F000DC01FC01672F71917723E1F7329704C08C
:100400007C916D9370836291AE17BF07C8F3089516
:10041000AA1BBB1B51E107C0AA1FBB1FA617B7072A
:1004200010F0A61BB70B881F991F5A95A9F7809546
:0C0430009095BC01CD010895F894FFCF19
:00000001FF
