:100000000C942A000C9434000C9434000C943400AA
:100010000C9434000C9434000C9434000C94340090
:100020000C9434000C9434000C9434000C94340080
:100030000C9434000C9434000C9434000C94340070
:100040000C9434000C9434000C9434000C94340060
:100050000C94340011241FBECFE5D4E0DEBFCDBF29
:100060000E9436000C9452000C9400003BEF62E0BA
:1000700070E03ABB1BBA43E050E09BB3842F83503F
:10008000892B8BBB2BB3CB01042E02C0880F991F89
:100090000A94E2F7282B2BBB4F5F5F4F4730510587
:0800A00061F7E7CFF894FFCFF0
:00000001FF
