:100000000C942A000C943C000C943C000C943C0092
:100010000C943C000C943C000C943C000C943C0070
:100020000C943C000C943C000C943C000C943C0060
:100030000C943C000C943C000C943C000C943C0050
:100040000C943C000C943C000C943C000C943C0040
:100050000C943C0011241FBECFE5D4E0DEBFCDBF21
:1000600010E0A0E6B0E001C01D92A238B107E1F7B0
:100070000E94EF000C94DF010C940000AD9A80E325
:1000800095E70197F1F7AD980895AF9A0895AF9865
:100090000895AE980895AE9A0895982F92959F70FE
:1000A000482F4F7061157105C9F485B3807F982B77
:1000B00095BBAF98AE98AD9A20E335E7C90101979B
:1000C000F1F7AD9885B3807F482B45BBAF98AE98CC
:1000D000AD9AC9010197F1F7AD98089561307105A6
:1000E000C1F485B3807F982B95BBAF9AAE98AD9A3B
:1000F00020E335E7C9010197F1F7AD9885B3807F1B
:10010000482B45BBAF9AAE98AD9AC9010197F1F75C
:10011000AD9808958FEF84BBAF98AE9881E060E012
:1001200070E00E944D008FE060E070E00E944D00A2
:1001300088E260E070E00E944D0008956130710532
:1001400031F4815860E070E00E944D000895623003
:10015000710529F4815460E070E00E944D0008951B
:10016000DF92EF92FF920F931F93CF93DF93F82EBE
:10017000492FC1E8D0E002E710E0E9E0F0E091E3C8
:10018000D92E80E3E82E1DC08F2D942F62E070E001
:100190000E948701D8018D939C93009711F4E88207
:1001A00004C08130910509F4D8828F2D942F62E02C
:1001B00070E00E948701F62E472F31972197025059
:1001C0001040F7FFE1CFF0937700E0937600DF91E6
:1001D000CF911F910F91FF90EF90DF900895EF92D4
:1001E000FF920F931F93CF93DF938FE08ABB80EC36
:1001F00087B986E886B98FEF81BB12BAA0E6B0E076
:10020000E8E7F0E080E090E004C01D921D921192BA
:1002100001968A309105CCF3909377008093760015
:1002200028E9E22E2AE3F22E00E61AEECCE2D1E033
:10023000369AC7010197F1F70E948A00C801019719
:10024000F1F784B195B10E94B00088EE93E0FE0111
:100250003197F1F70197D9F7EBCFEF92FF920F9318
:100260001F93CF93DF937C01DC010D900020E9F711
:100270008D0101501040081B190BC0E0D0E009C0EF
:10028000F701EC0FFD1F808161E070E00E944D00DE
:100290002196C017D107A4F3DF91CF911F910F9141
:1002A000FF90EF9008950F931F93DF93CF93CDB7F7
:1002B000DEB7C656D0400FB6F894DEBF0FBECDBF36
:1002C0008C01CB01BA010E949E0017FF0AC08DE28B
:1002D00089831A82CE0101960E942D011095019505
:1002E0001F4FC801BE016D5F7F4F4AE050E00E9482
:1002F000AE010E942D01CA59DF4F0FB6F894DEBF40
:100300000FBECDBFCF91DF911F910F91089597FB45
:10031000092E07260AD077FD04D00CD006D0002085
:100320001AF4709561957F4F0895F6F79095819531
:100330009F4F0895AA1BBB1B51E107C0AA1FBB1FFB
:10034000A617B70710F0A61BB70B881F991F5A9561
:10035000A9F780959095BC01CD010895FB019F01FF
:10036000E8944230C4F04532B4F44A3029F497FBA3
:100370001EF4909581959F4F642F77270E949A01D4
:10038000805D8A330CF0895D8193CB010097A1F7E2
:1003900016F45DE251931082C9010C94CF01DC0187
:1003A000FC01672F71917723E1F7329704C07C91AC
:1003B0006D9370836291AE17BF07C8F30895F894E8
:0203C000FFCF6D
:00000001FF
