:100000000C942A000C943C000C94B0000C943C001E
:100010000C943C000C943C000C943C000C943C0070
:100020000C943C000C943C000C943C000C943C0060
:100030000C943C000C943C000C943C000C943C0050
:100040000C943C000C943C000C943C000C943C0040
:100050000C943C0011241FBECFE5D4E0DEBFCDBF21
:1000600010E0A0E6B0E001C01D92A236B107E1F7B2
:100070000E941E010C94C8010C940000AD9A80E30C
:1000800095E70197F1F7AD980895AF9A0895AF9865
:100090000895AE980895AE9A0895982F92959F70FE
:1000A000482F4F7061157105C9F485B3807F982B77
:1000B00095BBAF98AE98AD9A20E335E7C90101979B
:1000C000F1F7AD9885B3807F482B45BBAF98AE98CC
:1000D000AD9AC9010197F1F7AD98089561307105A6
:1000E000C1F485B3807F982B95BBAF9AAE98AD9A3B
:1000F00020E335E7C9010197F1F7AD9885B3807F1B
:10010000482B45BBAF9AAE98AD9AC9010197F1F75C
:10011000AD9808958FEF84BBAF98AE9881E060E012
:1001200070E00E944D008FE060E070E00E944D00A2
:1001300088E260E070E00E944D0008956130710532
:1001400031F4815860E070E00E944D000895623003
:10015000710529F4815460E070E00E944D0008951B
:100160001F920F920FB60F9211248F939F9380913D
:10017000600090916100019690936100809360000F
:100180009F918F910F900FBE0F901F90189587E051
:1001900085BD089582E88FBD81E18EBD80E094E049
:1001A00097BD86BD80E092E09BBD8ABD08951FBCCF
:1001B0001EBC0895EF92FF920F931F93CF93DF938E
:1001C0007C01DC010D900020E9F78D010150104009
:1001D000081B190BC0E0D0E009C0F701EC0FFD1FB0
:1001E000808161E070E00E944D002196C017D10728
:1001F000A4F3DF91CF911F910F91FF90EF9008959D
:10020000DF93CF93CDB7DEB7C456D0400FB6F89486
:10021000DEBF0FBECDBFBE016F5F7F4F4AE050E033
:100220000E9483010E94DA00CC59DF4F0FB6F89488
:10023000DEBF0FBECDBFCF91DF9108950F931F9307
:10024000CF93DF9381E281BB81E082BB10E81FBFC7
:100250000E948A001BBF84E085BF1092610010924B
:10026000600082E88FBD81E18EBD80E094E097BDA3
:1002700086BD80E092E09BBD8ABD87E085BD0CE233
:1002800011E084B58A3FE8F3F89480916000909182
:10029000610061E070E041E050E00E940001C09127
:1002A0006000D09161002B97CE016AE070E041E0E0
:1002B00050E00E9400011C161D0634F48AB59BB55F
:1002C00005968C1B9D0B07C0209739F08AB59BB50E
:1002D00005978C0F9D1F9BBD8ABD8AB59BB561E0BC
:1002E00070E042E050E00E94000188EB9BE0F801E2
:1002F0003197F1F70197D9F714BC10926100109271
:1003000060007894BECFFB019F01E8944230C4F0B6
:100310004532B4F44A3029F497FB1EF49095819548
:100320009F4F642F77270E94B401805D8A330CF0C1
:10033000895D8193CB010097A1F716F45DE251939B
:100340001082C9010C94A401DC01FC01672F71919A
:100350007723E1F7329704C07C916D9370836291AB
:10036000AE17BF07C8F30895AA1BBB1B51E107C016
:10037000AA1FBB1FA617B70710F0A61BB70B881F35
:10038000991F5A95A9F780959095BC01CD010895C4
:04039000F894FFCF0F
:00000001FF
