:100000000C942A000C943F000C943F000C943F0089
:100010000C943F000C943F000C943F000C943F0064
:100020000C943F000C943F000C943F000C943F0054
:100030000C943F000C943F000C943F000C943F0044
:100040000C943F000C943F000C943F000C943F0034
:100050000C943F0011241FBECFE5D4E0DEBFCDBF1E
:1000600010E0A0E6B0E0E2ECF3E002C005900D92F3
:10007000A037B107D9F70E9427010C94DF010C9437
:100080000000AD9A80E395E70197F1F7AD980895E8
:10009000AF9A0895AF980895AE980895AE9A0895CE
:1000A000982F92959F70482F4F7061157105C9F474
:1000B00085B3807F982B95BBAF98AE98AD9A20E31F
:1000C00035E7C9010197F1F7AD9885B3807F482BDB
:1000D00045BBAF98AE98AD9AC9010197F1F7AD98BD
:1000E000089561307105C1F485B3807F982B95BB6D
:1000F000AF9AAE98AD9A20E335E7C9010197F1F7C1
:10010000AD9885B3807F482B45BBAF9AAE98AD9A2A
:10011000C9010197F1F7AD9808958FEF84BBAF98AF
:10012000AE9881E060E070E00E9450008FE060E0F7
:1001300070E00E94500088E260E070E00E94500091
:1001400008956130710531F4815860E070E00E94DB
:10015000500008956230710529F4815460E070E028
:100160000E945000089582EA8FBD8BE18EBD17BCBE
:1001700016BC1BBC1ABC19BC18BC089582EA8FBD02
:100180008BE18EBD80E091E097BD86BD80E890E078
:100190009BBD8ABD99BD88BD0895EF92FF920F93D4
:1001A0001F93CF93DF937C01DC010D900020E9F7D2
:1001B0008D0101501040081B190BC0E0D0E009C0B0
:1001C000F701EC0FFD1F808161E070E00E9450009C
:1001D0002196C017D107A4F3DF91CF911F910F9102
:1001E000FF90EF9008950F931F93DF93CF93CDB7B8
:1001F000DEB7C656D0400FB6F894DEBF0FBECDBFF7
:100200008C01CB01BA010E94A10017FF0AC08DE248
:1002100089831A82CE0101960E94CD001095019526
:100220001F4FC801BE016D5F7F4F4AE050E00E9442
:100230009A010E94CD00CA59DF4F0FB6F894DEBF75
:100240000FBECDBFCF91DF911F910F9108959F9267
:10025000AF92BF92CF92DF92EF92FF920F931F93D4
:10026000CF93DF9380E381BB8AB38ABB42EAA42E9B
:100270003BE1B32EC12C21E0D22E00E810E090E447
:10028000992E8CE2E82E81E0F82EAFBCBEBCD7BC24
:10029000C6BC1BBD0ABD19BD08BD97B886B1866C2A
:1002A00086B93099FECF0E948D00C4B1D5B1CE0180
:1002B00061E070E041E050E00E94F30080E197E2ED
:1002C000F7013197F1F70197D9F72A9754F50E9472
:1002D0008D0080E690E00E94CD00AFBCBEBC17BC94
:1002E00016BC1BBC1ABC19BC18BC80E197E2F70114
:1002F0003197F1F70197D9F780E197E2F70131974C
:10030000F1F70197D9F780E197E2F7013197F1F71B
:100310000197D9F780E197E2F7013197F1F701975B
:10032000D9F7AFBCBEBCD7BCC6BC1BBD0ABD19BD8E
:1003300008BDABCFFB019F01E8944230C4F04532C9
:10034000B4F44A3029F497FB1EF4909581959F4FA1
:10035000642F77270E94CB01805D8A330CF0895D82
:100360008193CB010097A1F716F45DE251931082BF
:10037000C9010C94BB01DC01FC01672F719177234B
:10038000E1F7329704C07C916D9370836291AE1750
:10039000BF07C8F30895AA1BBB1B51E107C0AA1FE2
:1003A000BB1FA617B70710F0A61BB70B881F991F16
:1003B0005A95A9F780959095BC01CD010895F894C0
:0203C000FFCF6D
:1003C2006F6273747220646574656374656400009F
:00000001FF
